{
  "contractName": "ShortTales",
  "abi": [
    {
      "anonymous": false,
      "inputs": [
        {
          "indexed": false,
          "internalType": "string",
          "name": "comment",
          "type": "string"
        },
        {
          "indexed": false,
          "internalType": "uint256",
          "name": "postedAt",
          "type": "uint256"
        }
      ],
      "name": "postingComment",
      "type": "event"
    },
    {
      "anonymous": false,
      "inputs": [
        {
          "indexed": false,
          "internalType": "address",
          "name": "postedBy",
          "type": "address"
        },
        {
          "indexed": false,
          "internalType": "string",
          "name": "id",
          "type": "string"
        },
        {
          "indexed": false,
          "internalType": "string",
          "name": "headline",
          "type": "string"
        },
        {
          "indexed": false,
          "internalType": "string",
          "name": "content",
          "type": "string"
        },
        {
          "indexed": false,
          "internalType": "uint256",
          "name": "postedAt",
          "type": "uint256"
        },
        {
          "indexed": false,
          "internalType": "bool",
          "name": "exist",
          "type": "bool"
        }
      ],
      "name": "postingStory",
      "type": "event"
    },
    {
      "inputs": [
        {
          "internalType": "uint256",
          "name": "",
          "type": "uint256"
        }
      ],
      "name": "fanArt",
      "outputs": [
        {
          "internalType": "string",
          "name": "",
          "type": "string"
        }
      ],
      "stateMutability": "view",
      "type": "function",
      "constant": true
    },
    {
      "inputs": [
        {
          "internalType": "uint256",
          "name": "",
          "type": "uint256"
        }
      ],
      "name": "talesList",
      "outputs": [
        {
          "internalType": "string",
          "name": "",
          "type": "string"
        }
      ],
      "stateMutability": "view",
      "type": "function",
      "constant": true
    },
    {
      "inputs": [],
      "name": "getTalesCount",
      "outputs": [
        {
          "internalType": "uint256",
          "name": "talesCount",
          "type": "uint256"
        }
      ],
      "stateMutability": "view",
      "type": "function",
      "constant": true
    },
    {
      "inputs": [],
      "name": "getFanArtCount",
      "outputs": [
        {
          "internalType": "uint256",
          "name": "fanArtCount",
          "type": "uint256"
        }
      ],
      "stateMutability": "view",
      "type": "function",
      "constant": true
    },
    {
      "inputs": [
        {
          "internalType": "string",
          "name": "linkHash",
          "type": "string"
        }
      ],
      "name": "postFanArt",
      "outputs": [],
      "stateMutability": "nonpayable",
      "type": "function"
    },
    {
      "inputs": [
        {
          "internalType": "string",
          "name": "_id",
          "type": "string"
        },
        {
          "internalType": "string",
          "name": "_headline",
          "type": "string"
        },
        {
          "internalType": "string",
          "name": "_content",
          "type": "string"
        }
      ],
      "name": "postStory",
      "outputs": [],
      "stateMutability": "nonpayable",
      "type": "function"
    },
    {
      "inputs": [
        {
          "internalType": "string",
          "name": "id",
          "type": "string"
        }
      ],
      "name": "getStory",
      "outputs": [
        {
          "components": [
            {
              "internalType": "address",
              "name": "postedBy",
              "type": "address"
            },
            {
              "internalType": "string",
              "name": "id",
              "type": "string"
            },
            {
              "internalType": "string",
              "name": "headline",
              "type": "string"
            },
            {
              "internalType": "string",
              "name": "content",
              "type": "string"
            },
            {
              "internalType": "uint256",
              "name": "postedAt",
              "type": "uint256"
            },
            {
              "internalType": "bool",
              "name": "exist",
              "type": "bool"
            }
          ],
          "internalType": "struct ShortTales.Tale",
          "name": "",
          "type": "tuple"
        }
      ],
      "stateMutability": "view",
      "type": "function",
      "constant": true
    },
    {
      "inputs": [
        {
          "internalType": "string",
          "name": "_postId",
          "type": "string"
        },
        {
          "internalType": "string",
          "name": "_comment",
          "type": "string"
        }
      ],
      "name": "addCommentToPost",
      "outputs": [],
      "stateMutability": "nonpayable",
      "type": "function"
    },
    {
      "inputs": [
        {
          "internalType": "string",
          "name": "_postId",
          "type": "string"
        }
      ],
      "name": "getComments",
      "outputs": [
        {
          "components": [
            {
              "internalType": "string",
              "name": "comment",
              "type": "string"
            },
            {
              "internalType": "uint256",
              "name": "postedAt",
              "type": "uint256"
            }
          ],
          "internalType": "struct ShortTales.Comment[]",
          "name": "",
          "type": "tuple[]"
        }
      ],
      "stateMutability": "view",
      "type": "function",
      "constant": true
    }
  ],
  "bytecode": "0x608060405234801561001057600080fd5b50611735806100206000396000f3fe608060405234801561001057600080fd5b50600436106100935760003560e01c806370c63fcc1161006657806370c63fcc146101205780637554693714610150578063a593857614610180578063a8bb97851461019c578063e4b21de7146101b857610093565b80630d3a7948146100985780631c73222f146100b65780633c6a8e60146100d25780636073991c146100f0575b600080fd5b6100a06101e8565b6040516100ad9190611532565b60405180910390f35b6100d060048036038101906100cb9190610f88565b6101f7565b005b6100da610236565b6040516100e79190611532565b60405180910390f35b61010a60048036038101906101059190610f88565b610246565b6040516101179190611510565b60405180910390f35b61013a60048036038101906101359190610f88565b6107ba565b604051610147919061145c565b60405180910390f35b61016a600480360381019061016591906110cc565b610a4e565b604051610177919061147e565b60405180910390f35b61019a60048036038101906101959190611035565b610b07565b005b6101b660048036038101906101b19190610fc9565b610cb9565b005b6101d260048036038101906101cd91906110cc565b610d7b565b6040516101df919061147e565b60405180910390f35b60006001808054905003905090565b600281908060018154018082558091505060019003906000526020600020016000909190919091509080519060200190610232929190610e34565b5050565b6000600160028054905003905090565b61024e610eb4565b81610257610eb4565b60008260405161026791906113cf565b90815260200160405180910390206040518060c00160405290816000820160009054906101000a900473ffffffffffffffffffffffffffffffffffffffff1673ffffffffffffffffffffffffffffffffffffffff1673ffffffffffffffffffffffffffffffffffffffff168152602001600182018054600181600116156101000203166002900480601f01602080910402602001604051908101604052809291908181526020018280546001816001161561010002031660029004801561036f5780601f106103445761010080835404028352916020019161036f565b820191906000526020600020905b81548152906001019060200180831161035257829003601f168201915b50505050508152602001600282018054600181600116156101000203166002900480601f0160208091040260200160405190810160405280929190818152602001828054600181600116156101000203166002900480156104115780601f106103e657610100808354040283529160200191610411565b820191906000526020600020905b8154815290600101906020018083116103f457829003601f168201915b50505050508152602001600382018054600181600116156101000203166002900480601f0160208091040260200160405190810160405280929190818152602001828054600181600116156101000203166002900480156104b35780601f10610488576101008083540402835291602001916104b3565b820191906000526020600020905b81548152906001019060200180831161049657829003601f168201915b50505050508152602001600482015481526020016005820160009054906101000a900460ff16151515158152505090508060a00151610527576040517f08c379a000000000000000000000000000000000000000000000000000000000815260040161051e906114f0565b60405180910390fd5b60008460405161053791906113cf565b90815260200160405180910390206040518060c00160405290816000820160009054906101000a900473ffffffffffffffffffffffffffffffffffffffff1673ffffffffffffffffffffffffffffffffffffffff1673ffffffffffffffffffffffffffffffffffffffff168152602001600182018054600181600116156101000203166002900480601f01602080910402602001604051908101604052809291908181526020018280546001816001161561010002031660029004801561063f5780601f106106145761010080835404028352916020019161063f565b820191906000526020600020905b81548152906001019060200180831161062257829003601f168201915b50505050508152602001600282018054600181600116156101000203166002900480601f0160208091040260200160405190810160405280929190818152602001828054600181600116156101000203166002900480156106e15780601f106106b6576101008083540402835291602001916106e1565b820191906000526020600020905b8154815290600101906020018083116106c457829003601f168201915b50505050508152602001600382018054600181600116156101000203166002900480601f0160208091040260200160405190810160405280929190818152602001828054600181600116156101000203166002900480156107835780601f1061075857610100808354040283529160200191610783565b820191906000526020600020905b81548152906001019060200180831161076657829003601f168201915b50505050508152602001600482015481526020016005820160009054906101000a900460ff16151515158152505092505050919050565b60608160606003826040516107cf91906113cf565b9081526020016040518091039020805480602002602001604051908101604052809291908181526020016000905b828210156108db5783829060005260206000209060020201604051806040016040529081600082018054600181600116156101000203166002900480601f0160208091040260200160405190810160405280929190818152602001828054600181600116156101000203166002900480156108b95780601f1061088e576101008083540402835291602001916108b9565b820191906000526020600020905b81548152906001019060200180831161089c57829003601f168201915b50505050508152602001600182015481525050815260200190600101906107fd565b5050505090506000815111610925576040517f08c379a000000000000000000000000000000000000000000000000000000000815260040161091c906114d0565b60405180910390fd5b60038460405161093591906113cf565b9081526020016040518091039020805480602002602001604051908101604052809291908181526020016000905b82821015610a415783829060005260206000209060020201604051806040016040529081600082018054600181600116156101000203166002900480601f016020809104026020016040519081016040528092919081815260200182805460018160011615610100020316600290048015610a1f5780601f106109f457610100808354040283529160200191610a1f565b820191906000526020600020905b815481529060010190602001808311610a0257829003601f168201915b5050505050815260200160018201548152505081526020019060010190610963565b5050505092505050919050565b60028181548110610a5b57fe5b906000526020600020016000915090508054600181600116156101000203166002900480601f016020809104026020016040519081016040528092919081815260200182805460018160011615610100020316600290048015610aff5780601f10610ad457610100808354040283529160200191610aff565b820191906000526020600020905b815481529060010190602001808311610ae257829003601f168201915b505050505081565b6040518060c001604052803373ffffffffffffffffffffffffffffffffffffffff16815260200184815260200183815260200182815260200142815260200160011515815250600084604051610b5d91906113cf565b908152602001604051809103902060008201518160000160006101000a81548173ffffffffffffffffffffffffffffffffffffffff021916908373ffffffffffffffffffffffffffffffffffffffff1602179055506020820151816001019080519060200190610bce929190610e34565b506040820151816002019080519060200190610beb929190610e34565b506060820151816003019080519060200190610c08929190610e34565b506080820151816004015560a08201518160050160006101000a81548160ff021916908315150217905550905050600183908060018154018082558091505060019003906000526020600020016000909190919091509080519060200190610c71929190610e34565b507fcbdfcbdd5797f9a14f86de0fa4fd7382d2999cc4228cf64cbeb77529cbb9f77533848484426001604051610cac969594939291906113e6565b60405180910390a1505050565b600382604051610cc991906113cf565b908152602001604051809103902060405180604001604052808381526020014281525090806001815401808255809150506001900390600052602060002090600202016000909190919091506000820151816000019080519060200190610d31929190610e34565b506020820151816001015550507f5269dac985b878c1e45c5bccd6dc41cae5158572d058ede3fde4c6e2cc87b3b18142604051610d6f9291906114a0565b60405180910390a15050565b60018181548110610d8857fe5b906000526020600020016000915090508054600181600116156101000203166002900480601f016020809104026020016040519081016040528092919081815260200182805460018160011615610100020316600290048015610e2c5780601f10610e0157610100808354040283529160200191610e2c565b820191906000526020600020905b815481529060010190602001808311610e0f57829003601f168201915b505050505081565b828054600181600116156101000203166002900490600052602060002090601f016020900481019282601f10610e7557805160ff1916838001178555610ea3565b82800160010185558215610ea3579182015b82811115610ea2578251825591602001919060010190610e87565b5b509050610eb09190610f02565b5090565b6040518060c00160405280600073ffffffffffffffffffffffffffffffffffffffff168152602001606081526020016060815260200160608152602001600081526020016000151581525090565b5b80821115610f1b576000816000905550600101610f03565b5090565b600082601f830112610f3057600080fd5b8135610f43610f3e8261157a565b61154d565b91508082526020830160208301858383011115610f5f57600080fd5b610f6a838284611695565b50505092915050565b600081359050610f82816116e8565b92915050565b600060208284031215610f9a57600080fd5b600082013567ffffffffffffffff811115610fb457600080fd5b610fc084828501610f1f565b91505092915050565b60008060408385031215610fdc57600080fd5b600083013567ffffffffffffffff811115610ff657600080fd5b61100285828601610f1f565b925050602083013567ffffffffffffffff81111561101f57600080fd5b61102b85828601610f1f565b9150509250929050565b60008060006060848603121561104a57600080fd5b600084013567ffffffffffffffff81111561106457600080fd5b61107086828701610f1f565b935050602084013567ffffffffffffffff81111561108d57600080fd5b61109986828701610f1f565b925050604084013567ffffffffffffffff8111156110b657600080fd5b6110c286828701610f1f565b9150509250925092565b6000602082840312156110de57600080fd5b60006110ec84828501610f73565b91505092915050565b600061110183836112dd565b905092915050565b6111128161165f565b82525050565b61112181611617565b82525050565b6000611132826115b6565b61113c81856115d9565b93508360208202850161114e856115a6565b8060005b8581101561118a578484038952815161116b85826110f5565b9450611176836115cc565b925060208a01995050600181019050611152565b50829750879550505050505092915050565b6111a581611629565b82525050565b6111b481611629565b82525050565b60006111c5826115c1565b6111cf81856115ea565b93506111df8185602086016116a4565b6111e8816116d7565b840191505092915050565b60006111fe826115c1565b61120881856115fb565b93506112188185602086016116a4565b611221816116d7565b840191505092915050565b6000611237826115c1565b611241818561160c565b93506112518185602086016116a4565b80840191505092915050565b600061126a600b836115fb565b91507f4e6f20636f6d6d656e74730000000000000000000000000000000000000000006000830152602082019050919050565b60006112aa600f836115fb565b91507f53746f7279206e6f7420666f756e6400000000000000000000000000000000006000830152602082019050919050565b600060408301600083015184820360008601526112fa82826111ba565b915050602083015161130f60208601826113b1565b508091505092915050565b600060c0830160008301516113326000860182611118565b506020830151848203602086015261134a82826111ba565b9150506040830151848203604086015261136482826111ba565b9150506060830151848203606086015261137e82826111ba565b915050608083015161139360808601826113b1565b5060a08301516113a660a086018261119c565b508091505092915050565b6113ba81611655565b82525050565b6113c981611655565b82525050565b60006113db828461122c565b915081905092915050565b600060c0820190506113fb6000830189611109565b818103602083015261140d81886111f3565b9050818103604083015261142181876111f3565b9050818103606083015261143581866111f3565b905061144460808301856113c0565b61145160a08301846111ab565b979650505050505050565b600060208201905081810360008301526114768184611127565b905092915050565b6000602082019050818103600083015261149881846111f3565b905092915050565b600060408201905081810360008301526114ba81856111f3565b90506114c960208301846113c0565b9392505050565b600060208201905081810360008301526114e98161125d565b9050919050565b600060208201905081810360008301526115098161129d565b9050919050565b6000602082019050818103600083015261152a818461131a565b905092915050565b600060208201905061154760008301846113c0565b92915050565b6000604051905081810181811067ffffffffffffffff8211171561157057600080fd5b8060405250919050565b600067ffffffffffffffff82111561159157600080fd5b601f19601f8301169050602081019050919050565b6000819050602082019050919050565b600081519050919050565b600081519050919050565b6000602082019050919050565b600082825260208201905092915050565b600082825260208201905092915050565b600082825260208201905092915050565b600081905092915050565b600061162282611635565b9050919050565b60008115159050919050565b600073ffffffffffffffffffffffffffffffffffffffff82169050919050565b6000819050919050565b600061166a82611671565b9050919050565b600061167c82611683565b9050919050565b600061168e82611635565b9050919050565b82818337600083830152505050565b60005b838110156116c25780820151818401526020810190506116a7565b838111156116d1576000848401525b50505050565b6000601f19601f8301169050919050565b6116f181611655565b81146116fc57600080fd5b5056fea26469706673582212208b57b7180dfd849ed86db9874dde8e8c993a6b0c1af243afd9f0d5484b45dac264736f6c63430007000033",
  "immutableReferences": {},
  "source": "// SPDX-License-Identifier: MIT\r\npragma solidity >=0.4.22 <0.8.0;\r\npragma experimental ABIEncoderV2;\r\n\r\ncontract ShortTales {\r\n    struct Tale {\r\n        address postedBy;\r\n        string id;\r\n        string headline;\r\n        string content;\r\n        uint256 postedAt;\r\n        bool exist;\r\n    }\r\n\r\n    struct Comment {\r\n        string comment;\r\n        uint256 postedAt;\r\n    }\r\n    mapping(string => Tale) shortTales;\r\n    string[] public talesList;\r\n    string[] public fanArt;\r\n\r\n    mapping(string => Comment[]) comments;\r\n\r\n    modifier storyExists(string memory _id) {\r\n        Tale memory tale = shortTales[_id];\r\n        require(tale.exist, \"Story not found\");\r\n\r\n        _;\r\n    }\r\n    modifier commentsExist(string memory _postId) {\r\n        Comment[] memory postComments = comments[_postId];\r\n        require(postComments.length > 0, \"No comments\");\r\n\r\n        _;\r\n    }\r\n    event postingStory(\r\n        address postedBy,\r\n        string id,\r\n        string headline,\r\n        string content,\r\n        uint256 postedAt,\r\n        bool exist\r\n    );\r\n    event postingComment(string comment, uint256 postedAt);\r\n\r\n    function getTalesCount() public view returns (uint256 talesCount) {\r\n        return talesList.length - 1;\r\n    }\r\n\r\n    function getFanArtCount() public view returns (uint256 fanArtCount) {\r\n        return fanArt.length - 1;\r\n    }\r\n\r\n    function postFanArt(string memory linkHash) external {\r\n        fanArt.push(linkHash);\r\n    }\r\n\r\n    function postStory(\r\n        string memory _id,\r\n        string memory _headline,\r\n        string memory _content\r\n    ) external {\r\n        shortTales[_id] = Tale(\r\n            msg.sender,\r\n            _id,\r\n            _headline,\r\n            _content,\r\n            block.timestamp,\r\n            true\r\n        );\r\n        talesList.push(_id);\r\n        emit postingStory(\r\n            msg.sender,\r\n            _id,\r\n            _headline,\r\n            _content,\r\n            block.timestamp,\r\n            true\r\n        );\r\n    }\r\n\r\n    function getStory(string memory id)\r\n        public\r\n        view\r\n        storyExists(id)\r\n        returns (Tale memory)\r\n    {\r\n        return shortTales[id];\r\n    }\r\n\r\n    function addCommentToPost(string memory _postId, string memory _comment)\r\n        external\r\n    {\r\n        comments[_postId].push(Comment(_comment, block.timestamp));\r\n        emit postingComment(_comment, block.timestamp);\r\n    }\r\n\r\n    function getComments(string memory _postId)\r\n        public\r\n        view\r\n        commentsExist(_postId)\r\n        returns (Comment[] memory)\r\n    {\r\n        return comments[_postId];\r\n    }\r\n}\r\n",
  "sourcePath": "C:/FAKULTET/1.diplomski/Blockchain/Projekt/contracts/ShortTales.sol",
  "compiler": {
    "name": "solc",
    "version": "0.7.0+commit.9e61f92b.Emscripten.clang"
  },
  "schemaVersion": "3.3.2",
  "updatedAt": "2020-12-02T16:19:16.539Z",
  "networkType": "ethereum",
  "devdoc": {
    "kind": "dev",
    "methods": {},
    "version": 1
  },
  "userdoc": {
    "kind": "user",
    "methods": {},
    "version": 1
  }
}