{
  "contractName": "Stories",
  "abi": [
    {
      "inputs": [
        {
          "internalType": "uint256",
          "name": "_id",
          "type": "uint256"
        },
        {
          "internalType": "string",
          "name": "_headline",
          "type": "string"
        },
        {
          "internalType": "string",
          "name": "_content",
          "type": "string"
        },
        {
          "internalType": "uint256",
          "name": "_postedAt",
          "type": "uint256"
        }
      ],
      "name": "postStory",
      "outputs": [],
      "stateMutability": "nonpayable",
      "type": "function"
    },
    {
      "inputs": [
        {
          "internalType": "uint256",
          "name": "_id",
          "type": "uint256"
        }
      ],
      "name": "getStory",
      "outputs": [
        {
          "components": [
            {
              "internalType": "uint256",
              "name": "id",
              "type": "uint256"
            },
            {
              "internalType": "string",
              "name": "headline",
              "type": "string"
            },
            {
              "internalType": "string",
              "name": "content",
              "type": "string"
            },
            {
              "internalType": "uint256",
              "name": "postedAt",
              "type": "uint256"
            },
            {
              "internalType": "bool",
              "name": "exist",
              "type": "bool"
            }
          ],
          "internalType": "struct Stories.Story",
          "name": "",
          "type": "tuple"
        }
      ],
      "stateMutability": "view",
      "type": "function",
      "constant": true
    },
    {
      "inputs": [
        {
          "internalType": "uint256",
          "name": "_postId",
          "type": "uint256"
        },
        {
          "internalType": "string",
          "name": "_comment",
          "type": "string"
        }
      ],
      "name": "addCommentToPost",
      "outputs": [],
      "stateMutability": "nonpayable",
      "type": "function"
    },
    {
      "inputs": [
        {
          "internalType": "uint256",
          "name": "_postId",
          "type": "uint256"
        }
      ],
      "name": "getCommentsForPost",
      "outputs": [
        {
          "components": [
            {
              "internalType": "string",
              "name": "comment",
              "type": "string"
            },
            {
              "internalType": "uint256",
              "name": "postedAt",
              "type": "uint256"
            }
          ],
          "internalType": "struct Stories.Comment[]",
          "name": "",
          "type": "tuple[]"
        }
      ],
      "stateMutability": "view",
      "type": "function",
      "constant": true
    }
  ],
  "bytecode": "0x608060405234801561001057600080fd5b50610e12806100206000396000f3fe608060405234801561001057600080fd5b506004361061004c5760003560e01c806303cf950f146100515780639c76164f14610081578063a5726c451461009d578063f80ad44a146100b9575b600080fd5b61006b6004803603810190610066919061094f565b6100e9565b6040516100789190610c7b565b60405180910390f35b61009b60048036038101906100969190610978565b610469565b005b6100b760048036038101906100b291906109cc565b6104e7565b005b6100d360048036038101906100ce919061094f565b61059a565b6040516100e09190610c39565b60405180910390f35b6100f1610818565b816100fa610818565b6000808381526020019081526020016000206040518060a001604052908160008201548152602001600182018054600181600116156101000203166002900480601f0160208091040260200160405190810160405280929190818152602001828054600181600116156101000203166002900480156101ba5780601f1061018f576101008083540402835291602001916101ba565b820191906000526020600020905b81548152906001019060200180831161019d57829003601f168201915b50505050508152602001600282018054600181600116156101000203166002900480601f01602080910402602001604051908101604052809291908181526020018280546001816001161561010002031660029004801561025c5780601f106102315761010080835404028352916020019161025c565b820191906000526020600020905b81548152906001019060200180831161023f57829003601f168201915b50505050508152602001600382015481526020016004820160009054906101000a900460ff161515151581525050905080608001516102d0576040517f08c379a00000000000000000000000000000000000000000000000000000000081526004016102c790610c5b565b60405180910390fd5b6000808581526020019081526020016000206040518060a001604052908160008201548152602001600182018054600181600116156101000203166002900480601f0160208091040260200160405190810160405280929190818152602001828054600181600116156101000203166002900480156103905780601f1061036557610100808354040283529160200191610390565b820191906000526020600020905b81548152906001019060200180831161037357829003601f168201915b50505050508152602001600282018054600181600116156101000203166002900480601f0160208091040260200160405190810160405280929190818152602001828054600181600116156101000203166002900480156104325780601f1061040757610100808354040283529160200191610432565b820191906000526020600020905b81548152906001019060200180831161041557829003601f168201915b50505050508152602001600382015481526020016004820160009054906101000a900460ff16151515158152505092505050919050565b60016000838152602001908152602001600020604051806040016040528083815260200142815250908060018154018082558091505060019003906000526020600020906002020160009091909190915060008201518160000190805190602001906104d6929190610849565b506020820151816001015550505050565b6040518060a0016040528085815260200184815260200183815260200182815260200160011515815250600080868152602001908152602001600020600082015181600001556020820151816001019080519060200190610549929190610849565b506040820151816002019080519060200190610566929190610849565b506060820151816003015560808201518160040160006101000a81548160ff02191690831515021790555090505050505050565b606081606060016000838152602001908152602001600020805480602002602001604051908101604052809291908181526020016000905b828210156106b05783829060005260206000209060020201604051806040016040529081600082018054600181600116156101000203166002900480601f01602080910402602001604051908101604052809291908181526020018280546001816001161561010002031660029004801561068e5780601f106106635761010080835404028352916020019161068e565b820191906000526020600020905b81548152906001019060200180831161067157829003601f168201915b50505050508152602001600182015481525050815260200190600101906105d2565b50505050905060008151116106fa576040517f08c379a00000000000000000000000000000000000000000000000000000000081526004016106f190610c5b565b60405180910390fd5b60016000858152602001908152602001600020805480602002602001604051908101604052809291908181526020016000905b8282101561080b5783829060005260206000209060020201604051806040016040529081600082018054600181600116156101000203166002900480601f0160208091040260200160405190810160405280929190818152602001828054600181600116156101000203166002900480156107e95780601f106107be576101008083540402835291602001916107e9565b820191906000526020600020905b8154815290600101906020018083116107cc57829003601f168201915b505050505081526020016001820154815250508152602001906001019061072d565b5050505092505050919050565b6040518060a00160405280600081526020016060815260200160608152602001600081526020016000151581525090565b828054600181600116156101000203166002900490600052602060002090601f016020900481019282601f1061088a57805160ff19168380011785556108b8565b828001600101855582156108b8579182015b828111156108b757825182559160200191906001019061089c565b5b5090506108c591906108c9565b5090565b5b808211156108e25760008160009055506001016108ca565b5090565b600082601f8301126108f757600080fd5b813561090a61090582610cca565b610c9d565b9150808252602083016020830185838301111561092657600080fd5b610931838284610d72565b50505092915050565b60008135905061094981610dc5565b92915050565b60006020828403121561096157600080fd5b600061096f8482850161093a565b91505092915050565b6000806040838503121561098b57600080fd5b60006109998582860161093a565b925050602083013567ffffffffffffffff8111156109b657600080fd5b6109c2858286016108e6565b9150509250929050565b600080600080608085870312156109e257600080fd5b60006109f08782880161093a565b945050602085013567ffffffffffffffff811115610a0d57600080fd5b610a19878288016108e6565b935050604085013567ffffffffffffffff811115610a3657600080fd5b610a42878288016108e6565b9250506060610a538782880161093a565b91505092959194509250565b6000610a6b8383610b70565b905092915050565b6000610a7e82610d06565b610a888185610d29565b935083602082028501610a9a85610cf6565b8060005b85811015610ad65784840389528151610ab78582610a5f565b9450610ac283610d1c565b925060208a01995050600181019050610a9e565b50829750879550505050505092915050565b610af181610d5c565b82525050565b6000610b0282610d11565b610b0c8185610d3a565b9350610b1c818560208601610d81565b610b2581610db4565b840191505092915050565b6000610b3d600f83610d4b565b91507f53746f7279206e6f7420666f756e6400000000000000000000000000000000006000830152602082019050919050565b60006040830160008301518482036000860152610b8d8282610af7565b9150506020830151610ba26020860182610c2a565b508091505092915050565b600060a083016000830151610bc56000860182610c2a565b5060208301518482036020860152610bdd8282610af7565b91505060408301518482036040860152610bf78282610af7565b9150506060830151610c0c6060860182610c2a565b506080830151610c1f6080860182610ae8565b508091505092915050565b610c3381610d68565b82525050565b60006020820190508181036000830152610c538184610a73565b905092915050565b60006020820190508181036000830152610c7481610b30565b9050919050565b60006020820190508181036000830152610c958184610bad565b905092915050565b6000604051905081810181811067ffffffffffffffff82111715610cc057600080fd5b8060405250919050565b600067ffffffffffffffff821115610ce157600080fd5b601f19601f8301169050602081019050919050565b6000819050602082019050919050565b600081519050919050565b600081519050919050565b6000602082019050919050565b600082825260208201905092915050565b600082825260208201905092915050565b600082825260208201905092915050565b60008115159050919050565b6000819050919050565b82818337600083830152505050565b60005b83811015610d9f578082015181840152602081019050610d84565b83811115610dae576000848401525b50505050565b6000601f19601f8301169050919050565b610dce81610d68565b8114610dd957600080fd5b5056fea2646970667358221220287fe208250cb31eaafb035a303902e03fed3ebfa11341ba2fecda24d188fc3a64736f6c63430007000033",
  "immutableReferences": {},
  "source": "// SPDX-License-Identifier: MIT\r\npragma solidity >=0.4.22 <0.8.0;\r\npragma experimental ABIEncoderV2;\r\n\r\ncontract Stories {\r\n    struct Story {\r\n        uint256 id;\r\n        string headline;\r\n        string content;\r\n        uint256 postedAt;\r\n        bool exist;\r\n    }\r\n\r\n    struct Comment {\r\n        string comment;\r\n        uint256 postedAt;\r\n    }\r\n    mapping(uint256 => Story) private database;\r\n    mapping(uint256 => Comment[]) comments;\r\n\r\n    modifier storyExists(uint256 _id) {\r\n        Story memory story = database[_id];\r\n        require(story.exist, \"Story not found\");\r\n\r\n        _;\r\n    }\r\n    modifier commentsExist(uint256 _postId) {\r\n        Comment[] memory postComments = comments[_postId];\r\n        require(postComments.length > 0, \"Story not found\");\r\n\r\n        _;\r\n    }\r\n\r\n    function postStory(\r\n        uint256 _id,\r\n        string memory _headline,\r\n        string memory _content,\r\n        uint256 _postedAt\r\n    ) external {\r\n        database[_id] = Story(_id, _headline, _content, _postedAt, true);\r\n    }\r\n\r\n    function getStory(uint256 _id)\r\n        external\r\n        view\r\n        storyExists(_id)\r\n        returns (Story memory)\r\n    {\r\n        return database[_id];\r\n    }\r\n\r\n    function addCommentToPost(uint256 _postId, string memory _comment)\r\n        external\r\n    {\r\n        comments[_postId].push(Comment(_comment, block.timestamp));\r\n    }\r\n\r\n    function getCommentsForPost(uint256 _postId)\r\n        public\r\n        view\r\n        commentsExist(_postId)\r\n        returns (Comment[] memory)\r\n    {\r\n        return comments[_postId];\r\n    }\r\n}\r\n",
  "sourcePath": "C:/FAKULTET/1.diplomski/Blockchain/Projekt/contracts/Stories.sol",
  "compiler": {
    "name": "solc",
    "version": "0.7.0+commit.9e61f92b.Emscripten.clang"
  },
  "schemaVersion": "3.3.2",
  "updatedAt": "2020-11-24T12:07:55.905Z",
  "networkType": "ethereum",
  "devdoc": {
    "kind": "dev",
    "methods": {},
    "version": 1
  },
  "userdoc": {
    "kind": "user",
    "methods": {},
    "version": 1
  }
}