{
  "contractName": "Strories",
  "abi": [
    {
      "inputs": [
        {
          "internalType": "uint256",
          "name": "_id",
          "type": "uint256"
        },
        {
          "internalType": "string",
          "name": "_headline",
          "type": "string"
        },
        {
          "internalType": "string",
          "name": "_content",
          "type": "string"
        },
        {
          "internalType": "uint256",
          "name": "_postedAt",
          "type": "uint256"
        }
      ],
      "name": "postStory",
      "outputs": [],
      "stateMutability": "nonpayable",
      "type": "function"
    },
    {
      "inputs": [
        {
          "internalType": "uint256",
          "name": "_id",
          "type": "uint256"
        }
      ],
      "name": "getStory",
      "outputs": [
        {
          "components": [
            {
              "internalType": "uint256",
              "name": "id",
              "type": "uint256"
            },
            {
              "internalType": "string",
              "name": "headline",
              "type": "string"
            },
            {
              "internalType": "string",
              "name": "content",
              "type": "string"
            },
            {
              "internalType": "uint256",
              "name": "postedAt",
              "type": "uint256"
            },
            {
              "internalType": "bool",
              "name": "exist",
              "type": "bool"
            }
          ],
          "internalType": "struct Strories.Story",
          "name": "",
          "type": "tuple"
        }
      ],
      "stateMutability": "view",
      "type": "function"
    }
  ],
  "bytecode": "0x608060405234801561001057600080fd5b5061093f806100206000396000f3fe608060405234801561001057600080fd5b50600436106100365760003560e01c806303cf950f1461003b578063a5726c451461006b575b600080fd5b610055600480360381019061005091906105f1565b610087565b60405161006291906107e1565b60405180910390f35b6100856004803603810190610080919061061a565b610407565b005b61008f6104ba565b816100986104ba565b6000808381526020019081526020016000206040518060a001604052908160008201548152602001600182018054600181600116156101000203166002900480601f0160208091040260200160405190810160405280929190818152602001828054600181600116156101000203166002900480156101585780601f1061012d57610100808354040283529160200191610158565b820191906000526020600020905b81548152906001019060200180831161013b57829003601f168201915b50505050508152602001600282018054600181600116156101000203166002900480601f0160208091040260200160405190810160405280929190818152602001828054600181600116156101000203166002900480156101fa5780601f106101cf576101008083540402835291602001916101fa565b820191906000526020600020905b8154815290600101906020018083116101dd57829003601f168201915b50505050508152602001600382015481526020016004820160009054906101000a900460ff1615151515815250509050806080015161026e576040517f08c379a0000000000000000000000000000000000000000000000000000000008152600401610265906107c1565b60405180910390fd5b6000808581526020019081526020016000206040518060a001604052908160008201548152602001600182018054600181600116156101000203166002900480601f01602080910402602001604051908101604052809291908181526020018280546001816001161561010002031660029004801561032e5780601f106103035761010080835404028352916020019161032e565b820191906000526020600020905b81548152906001019060200180831161031157829003601f168201915b50505050508152602001600282018054600181600116156101000203166002900480601f0160208091040260200160405190810160405280929190818152602001828054600181600116156101000203166002900480156103d05780601f106103a5576101008083540402835291602001916103d0565b820191906000526020600020905b8154815290600101906020018083116103b357829003601f168201915b50505050508152602001600382015481526020016004820160009054906101000a900460ff16151515158152505092505050919050565b6040518060a00160405280858152602001848152602001838152602001828152602001600115158152506000808681526020019081526020016000206000820151816000015560208201518160010190805190602001906104699291906104eb565b5060408201518160020190805190602001906104869291906104eb565b506060820151816003015560808201518160040160006101000a81548160ff02191690831515021790555090505050505050565b6040518060a00160405280600081526020016060815260200160608152602001600081526020016000151581525090565b828054600181600116156101000203166002900490600052602060002090601f016020900481019282601f1061052c57805160ff191683800117855561055a565b8280016001018555821561055a579182015b8281111561055957825182559160200191906001019061053e565b5b509050610567919061056b565b5090565b5b8082111561058457600081600090555060010161056c565b5090565b600082601f83011261059957600080fd5b81356105ac6105a782610830565b610803565b915080825260208301602083018583830111156105c857600080fd5b6105d383828461089f565b50505092915050565b6000813590506105eb816108f2565b92915050565b60006020828403121561060357600080fd5b6000610611848285016105dc565b91505092915050565b6000806000806080858703121561063057600080fd5b600061063e878288016105dc565b945050602085013567ffffffffffffffff81111561065b57600080fd5b61066787828801610588565b935050604085013567ffffffffffffffff81111561068457600080fd5b61069087828801610588565b92505060606106a1878288016105dc565b91505092959194509250565b6106b681610889565b82525050565b60006106c78261085c565b6106d18185610867565b93506106e18185602086016108ae565b6106ea816108e1565b840191505092915050565b6000610702600f83610878565b91507f53746f7279206e6f7420666f756e6400000000000000000000000000000000006000830152602082019050919050565b600060a08301600083015161074d60008601826107b2565b506020830151848203602086015261076582826106bc565b9150506040830151848203604086015261077f82826106bc565b915050606083015161079460608601826107b2565b5060808301516107a760808601826106ad565b508091505092915050565b6107bb81610895565b82525050565b600060208201905081810360008301526107da816106f5565b9050919050565b600060208201905081810360008301526107fb8184610735565b905092915050565b6000604051905081810181811067ffffffffffffffff8211171561082657600080fd5b8060405250919050565b600067ffffffffffffffff82111561084757600080fd5b601f19601f8301169050602081019050919050565b600081519050919050565b600082825260208201905092915050565b600082825260208201905092915050565b60008115159050919050565b6000819050919050565b82818337600083830152505050565b60005b838110156108cc5780820151818401526020810190506108b1565b838111156108db576000848401525b50505050565b6000601f19601f8301169050919050565b6108fb81610895565b811461090657600080fd5b5056fea2646970667358221220f5f155c8a5c750d9f4375a89bc1fbd0227f6719204222b2bb52865f1d4c8345264736f6c63430007000033",
  "immutableReferences": {},
  "source": "// SPDX-License-Identifier: MIT\r\npragma solidity >=0.4.22 <0.8.0;\r\npragma experimental ABIEncoderV2;\r\n\r\ncontract Strories {\r\n    struct Story {\r\n        uint256 id;\r\n        string headline;\r\n        string content;\r\n        uint256 postedAt;\r\n        bool exist;\r\n    }\r\n    mapping(uint256 => Story) private database;\r\n\r\n    modifier storyExists(uint256 _id) {\r\n        Story memory story = database[_id];\r\n        require(story.exist, \"Story not found\");\r\n\r\n        _;\r\n    }\r\n\r\n    function postStory(\r\n        uint256 _id,\r\n        string memory _headline,\r\n        string memory _content,\r\n        uint256 _postedAt\r\n    ) external {\r\n        database[_id] = Story(_id, _headline, _content, _postedAt, true);\r\n    }\r\n\r\n    function getStory(uint256 _id)\r\n        external\r\n        view\r\n        storyExists(_id)\r\n        returns (Story memory)\r\n    {\r\n        return database[_id];\r\n    }\r\n}\r\n",
  "sourcePath": "C:/FAKULTET/1.diplomski/Blockchain/Projekt/contracts/Stories.sol",
  "compiler": {
    "name": "solc",
    "version": "0.7.0+commit.9e61f92b.Emscripten.clang"
  },
  "schemaVersion": "3.3.2",
  "updatedAt": "2020-11-19T11:13:41.775Z",
  "devdoc": {
    "kind": "dev",
    "methods": {},
    "version": 1
  },
  "userdoc": {
    "kind": "user",
    "methods": {},
    "version": 1
  }
}